:020000040800F2
:1000000094660020D5640008795E0008835E0008CD
:100010008D5E0008975E0008A15E0008D65BFDAF0C
:10002000000000000000000000000000615C00080B
:10003000AB5E000800000000F95C0008495D0008A4
:10004000B55E0008C75E0008D95E0008EB5E0008D8
:10005000FD5E00080F5F0008215F0008335F0008A5
:10006000455F0008575F0008695F00087B5F000874
:100070008D5F0008AD6500089F5F000849650008B6
:10008000B15F0008C35F0008D55F0008E75F0008A4
:10009000F95F00080B6000081D6000082F60000871
:1000A0004160000853600008656000087760000840
:1000B000896000089B600008AD600008BF60000810
:1000C000D1600008E3600008F560000807610008DF
:1000D000196100082B6100083D6100084F610008AC
:1000E000616100087361000885610008976100087C
:1000F000A9610008BB610008CD610008DF6100084C
:10010000F161000803620008156200082762000818
:10011000396200084B6200085D6200086F620008E7
:100120008162000893620008A5620008B7620008B7
:10013000C9620008DB620008ED620008FF62000887
:100140001163000823630008356300084763000853
:10015000596300086B6300087D6300088F63000823
:10016000A1630008B3630008C5630008D7630008F3
:10017000E9630008FB6300080D6400081F640008C1
:10018000316400084364000855640008676400088F
:10019000796400088B6400089D640008AF6400085F
:1001A000B9460008C16400081D4700087047A0F167
:1001B0000400FFF7FBBF7047704710B504460DF011
:1001C00033FE204610BDA0F10400F6E710B5002272
:1001D0008260044AC16002F1080420320460426077
:1001E00010BD00BFE8E2000870B51E460368BDF907
:1001F00010505B6B044698472368204631469A6B43
:100200009047236820462946DB6BBDE870401847BD
:1002100081807047C180704770B503680446DB6A0F
:10022000154698472368204629461B6BBDE8704059
:100230001847018170474181704770477047704788
:100240007047704730B583880568C91AC388D21AC9
:1002500009B26B6D12B2BDE8304018474FF6FF731C
:100260008381038443841368C361106070477047BF
:10027000704770477047704790F825201AB190F882
:10028000242002B11860704770477047704770476C
:10029000704710B5C2688368406812F0010F4FEADA
:1002A000620218BF8458104418BFE358BDE81040DC
:1002B000184743682BB183682BB9C06800F0010070
:1002C0007047184670470120704710B504460DF07E
:1002D000ABFD204610BD10B504460DF0A5FD20462F
:1002E00010BD10B504460DF09FFD204610BD000066
:1002F00010B5044602F088F8014B2360204610BD7B
:1003000018E300080022026070477047704770478A
:1003100070477047C2688368406812F0010F4FEA67
:10032000620218BF8158104418BFCB581847436861
:100330002BB183682BB9C06800F0010070471846E4
:1003400070470120704710B504460DF06DFD204642
:1003500010BD10B504460DF067FD204610BD10B568
:1003600004460DF061FD204610BD10B50446D0F8DE
:100370002401FFF7CAFF2046BDE8104009F07CBE0B
:1003800010B50446D0F80C0158B10368DB689847F3
:1003900038B1D4F80C0103689B6898470023C4F86F
:1003A0000C3110BD10B5044603F0F0FB014B236087
:1003B000204610BD50E300082DE9F74F00F5A35784
:1003C000083705463B46002453F8042F914208D1D4
:1003D00091F84230002B00F0FB814B6B012B05D1D3
:1003E000F6E10134202CEFD101F0C3BF41F26443A8
:1003F000EE5C002E40F01D8205F5A35704F21A535F
:1004000005EB83033C6081F82560586803685B69ED
:100410009847032C40F3868024F01003083B032BFD
:100420000AD9A4F11003032BB1464FF004034FF097
:10043000010A00F2238103E00423B1464FF0010AD0
:100440001E44B9F1010FC6EB040807D108F21A5394
:1004500005EB83035B685B6B012B24D13B6805EBE9
:10046000880202F5A35203F21A530C3205EB830300
:1004700010685B68416B5B6B994214D0B9F1010F56
:1004800040F01582012900F0068209F101091AF0F5
:10049000010F08F1FF320CBF04230323022A0AF1E3
:1004A000010A00F2EE81082C3CD0102C74D0182CDC
:1004B00072D04FF000090523C8464FF0010A994455
:1004C000B8F1010FC9EB040607D106F21A5305EB88
:1004D00083035B685B6B012B22D13B6805EB8602D3
:1004E00002F5A35203F21A530C3205EB8303106892
:1004F0005B68416B5B6B994212D0B8F1010F40F021
:10050000F681012900F0E88108F101081AF0010FD5
:100510000CBF05230423102E0AF1010A40F0D181FB
:10052000102C39D034F0080336D04FF000090323E3
:10053000C8464FF0010A9944B8F1010F09EB0406CF
:1005400007D106F21A5305EB83035B685B6B012B43
:1005500022D13B6805EB860202F5A35203F21A533F
:100560000C3205EB830310685B68416B5B6B99424F
:1005700012D0B8F1010F40F0D981012900F0CB81F0
:1005800008F101081AF0010F0CBF03230423102EF9
:100590000AF1010A40F0B5814FF000090423C84672
:1005A0004FF0010A9944B8F1010F09EB040607D195
:1005B00006F21A5305EB83035B685B6B012B24D1B6
:1005C0003B6805EB860202F5A35203F21A530C3284
:1005D00005EB830310685B68416B5B6B994214D039
:1005E000B8F1010F40F0B581012900F0BC8108F19C
:1005F00001081AF0010FA6F11C020CBF0423052309
:10060000032A0AF1010A00F29B8141F265430122AB
:10061000EA540EE108F21A5305EB83035B685B6B47
:10062000012B3CD13A6805EB880303F5A35302F292
:100630001A520C3305EB820218685268416B526BF8
:1006400091422CD0B9F1010F40F0958101291CD0C5
:1006500009F101091AF0010F08F1FF320CBF042360
:100660000523022A0AF1010A19D9B44217D028F049
:100670001002082A13D0B8F1100F10D01E44B9F19F
:10068000010FC6EB0408CDD1C4E708F21A5305EBFD
:10069000830380F82590586803685B69984724F0C5
:1006A0001803072B24F0080638D04FF0000A032364
:1006B000D1464FF0010B9A44B9F1010FCAEB04087F
:1006C00007D108F21A5305EB83035B685B6B012BC0
:1006D00024D13B6805EB880202F5A35203F21A53BA
:1006E0000C3205EB830310685B68416B5B6B9942CE
:1006F00014D0B9F1010F40F05D81012900F04F8164
:1007000009F101091BF0010F08F1FF320CBF0323AF
:100710000423022A0BF1010B00F23781A4F11C0320
:10072000032B7FF672AF4FF0000A0423D1464FF03F
:10073000010B9A44B9F1010F0AEB040807D108F242
:100740001A5305EB83035B685B6B012B23D13B687A
:1007500005EB880202F5A35203F21A530C3205EBA3
:10076000830310685B68416B5B6B994213D0B9F1EE
:10077000010F40F04181012900F0328109F10109A6
:100780001BF0010F0CBF04230323B8F1100F0BF172
:10079000010B40F01981172C3FF437AF072E3FF4BF
:1007A00034AF4FF000090523C8464FF0010A9944C1
:1007B000B8F1010F09EB040640F0288106F21A5344
:1007C00005EB83035B685B6B012B00F01F811CE76B
:1007D00005F5A358D2F834A0D8F8003003F21A5324
:1007E00005EB83035B6893F84210002900F04D810C
:1007F00041F26441685C002800F0478105F5A75686
:10080000BAF1010F06F1080600F03C8241F26542A0
:100810000023AB546B5457F8043F5A6B012A06D19E
:10082000002283F82520386803685B699847B7423F
:10083000F1D141F26543EB5C6BB141F264430022BC
:10084000E95C11B90121E95400E0EA5441F2654341
:10085000EA5401F08EBD05F5A3520121136803F29D
:100860001A5305EB83035B6883F82510136803F2C2
:100870001A5305EB8305686803685B69984701F0C4
:1008800078BD28F00802072A3FF40DAEB8F1170F23
:100890007FF4D6AD07E608F21A5805EB880880F811
:1008A0002590D8F8040003685B699847FBE50129A7
:1008B0007FF4EBAD80F82510106803685B699847FA
:1008C000E5E5082E3FF42CAE4C453FF429AE013E41
:1008D000012E3FF6F4AD23E606F21A5605EB860626
:1008E00080F82580706803685B69984718E60129DD
:1008F0007FF40AAE80F82510106803685B6998479A
:1009000004E626F01002082A3FF446AE1C3E022EF2
:100910003FF611AE40E606F21A5605EB860680F861
:100920002580706803685B69984735E601297FF484
:1009300027AE80F82510106803685B69984721E6A8
:10094000172E3FF462AE26F00806072E7FF42AAE7B
:100950005BE601297FF44BAE80F825101068036830
:100960005B69984745E606F21A5605EB860680F85D
:100970002580706885E001297FF46AAE80F8251033
:10098000186803685B69984764E628F00802072A3C
:100990003FF4C4AEB8F1170F7FF48DAEBEE608F297
:1009A0001A5305EB830380F82590586803685B6948
:1009B0009847B3E601297FF4A3AE80F825101068AC
:1009C00003685B6998479DE628F01002082A3FF407
:1009D000E2AEA8F11C08B8F1020F3FF6AAAEDAE6C3
:1009E00008F21A5805EB880880F82590D8F804001A
:1009F00003685B699847CEE601297FF4BFAE80F8B3
:100A00002510106803685B699847B9E63B6805EBF9
:100A1000860202F5A35203F21A530C3205EB83034C
:100A200010685B68416B5B6B99423FF4EEADB8F1C7
:100A3000010F04D101291DD008F1010807E00129A7
:100A4000FAD180F82510106803685B6998471AF09E
:100A5000010FA6F11D020CBF05230423022A0AF18F
:100A6000010A7FF6D2AD172E3FF4CFAD0F2E7FF4E3
:100A70009EAECAE506F21A5305EB830380F8258083
:100A8000586803685B699847BFE5BAF1020FD14621
:100A900005D141F26441695C002900F06B8541F2A7
:100AA0006441685C20B1596B022905D100F062BD38
:100AB000BAF1000F00F08A82D3F834B0BBF1000F16
:100AC0007FF4B7AE00283FF4B4AEBAF1010F05F5DC
:100AD000A75A0AF1080A40F0BE80C3F83490D8F84B
:100AE000003003F21A5305EB830301AA5868036828
:100AF0009E6E0323ADF80030ADF804306946B04770
:100B000005EB840641F26C43032CF258C2F834B072
:100B10000EDCF25882F84290F0580368D3F868C0AF
:100B20000523ADF80030ADF80430694601AA0BE0AA
:100B3000F0580368D3F868C00423ADF80030ADF86E
:100B4000043069460DEB0302E04757F8043F5A6B47
:100B5000012A06D1002283F82520386803685B69E2
:100B600098475745F1D1D8F800301A1B82EAE27154
:100B7000A1EBE27105297FF748AD9C4234DAA4F17C
:100B80001003032B03D924F00804032C23D8092ACB
:100B90001BD141F27C47F35901225A63F059036893
:100BA0009C6E0323ADF80030ADF80430694601AA0D
:100BB000A047F359002483F82540F05903685B6986
:100BC0009847F35983F842401FE5072A7FF41DAD8B
:100BD00041F27847DFE7092A03D0072A7FF415ADF1
:100BE000D7E706F5A4561EE07FF70FAD24F01002FC
:100BF000083A032AA4EB030302D9103C032C08D8BB
:100C0000092B02D141F25847C5E7072B7FF4FDAC11
:100C100001E0092B02D141F25C47BCE7072B7FF4CE
:100C2000F4AC06F5A356336801225A6330680368B2
:100C30009C6E0323ADF80030ADF80430694601AA7C
:100C4000A0473368002483F82540306803685B6957
:100C500098473368B6E741F2654305F803B041F2BF
:100C6000644305F803B057F8043F5A6B012A06D1D4
:100C7000002283F82520386803685B699847574548
:100C8000F1D1D6E55B6B022B11D105EB840B41F260
:100C90006C4953635BF8090002686946D2F868C082
:100CA000ADF80030ADF8043001AAE04711E0A3B977
:100CB00005EB840B41F26C4953635BF80900036850
:100CC00005229B6EADF80020ADF80420694601AA0C
:100CD00098475BF8093083F842A0D8F8003003F257
:100CE0001A5305EB830301225B685A63D8F800307E
:100CF00003F21A5305EB830301AA58680368D3F87B
:100D000068C00323ADF80030ADF804306946E04711
:100D1000D8F8003003F21A5305EB830300225B6816
:100D200083F84220D8F80030A34236DD032CA3F12B
:100D3000070108DD24F01002083A032A03D9A4F1C0
:100D40001002032A15D8A14200F08B80A3F10A02F9
:100D5000A24200F08680A3F10E02A24200F0818040
:100D6000A3F11102A2427CD0A3F11502A24251D1FB
:100D700077E0A1427AD0A3F10B02A24276D0A3F190
:100D80000E02A24272D0A3F11202A2426ED0A3F1CF
:100D90001502A24240F0928068E052DA032C03F17F
:100DA000070108DD24F01002083A032A03D9A4F150
:100DB0001002032A17D8A14200F0908003F10B0221
:100DC000A24200F08B8003F10E02A24200F0868066
:100DD00003F11202A24200F0818003F11502A24247
:100DE00040F081807AE0A14200F0A58003F10A0280
:100DF000A24200F0A08003F10E02A24200F09B800C
:100E000003F11102A24200F0968003F11502A24202
:100E100079D190E0A3F10902A24227D0A3F10D02FB
:100E2000A24223D0A3F11202A2421FD0A3F11602C4
:100E3000A2421BD0A3F11B02A24217D01F3BA34228
:100E400014D057F8043F5A6B012A06D1002283F8C8
:100E50002520386803685B699847B742F1D1FFF7EE
:100E6000D4BB05EB840441F2784903E005EB84042C
:100E700041F27C4954F809305A6B012AE1D0012231
:100E80005A6354F809000368D3F868C00323ADF827
:100E90000030ADF80430694601AAE04754F8093043
:100EA0004FF0000883F8258054F8090003685B6957
:100EB000984754F8093083F84280C2E7A3F1090249
:100EC000A24206D0A3F11702A24202D01B3BA342CA
:100ED000B7D105EB840404F5A45430E005EB840499
:100EE00041F25C49C6E703F10902A24206D003F1D0
:100EF0001702A24202D01B33A342A2D105EB840405
:100F000041F25849B6E703F10902A24235D003F194
:100F10000D02A24231D003F11202A2422DD003F100
:100F20001602A24229D003F11B02A24225D01F3390
:100F3000A34286D121E005EB840404F5A354236881
:100F40005A6B012A3FF47DAF01225A63206803687F
:100F5000D3F868C00323ADF80030ADF8043069461B
:100F600001AAE04723684FF0000883F82580206835
:100F700003685B69984723689DE705EB840441F2A9
:100F80005C4854F808305A6B012A3FF45AAF0122EA
:100F90005A6354F808000368D3F868C00323ADF817
:100FA0000030ADF80430694601AAE04754F8083033
:100FB0004FF0000983F8259054F8080003685B6936
:100FC000984754F8083083F842903AE741F26C436E
:100FD00005EB8406C8F8004082F82590F0580368B5
:100FE0005B699847630744D1002C00F01C8141F2F3
:100FF0005C43F3585F6B022F05D141F25042B25867
:10100000526B012A12D041F27C42B258526B022A32
:1010100040F0FC87172C00F3F98741F29042B25858
:10102000526B012A40F0F287022F06D141F2504361
:10103000F258576B012F00F0F98741F27C43F358C7
:101040005B6B022B7FF4F5AB172C3FF7F2AB41F251
:101050009043F258546B012C7FF4EBAB82F825409F
:10106000F05803685B69984741F26543EC54FFF719
:10107000E0BB24F01803072B45D141F25C43F35841
:101080005F6B022F07D1072C05DD41F24842B258B1
:10109000526B012A14D041F27C42B258526B022AA0
:1010A00040F0CF871F2C00F0CC8741F28842B25825
:1010B000526B012A40F0C587022F08D1072C06DDAC
:1010C00041F24843F258576B012F00F0CA8741F2B2
:1010D0007C43F3585B6B022B7FF4ABAB1F2C3FF4CC
:1010E000A8AB41F28843F258546B012C7FF4A1ABBA
:1010F00082F82540F05803685B69984741F26543E0
:10110000EC54FFF796BB042B45D106F5A35706F523
:10111000A4583B68596B022907D1042C05DD41F224
:101120005043F3585B6B012B13D0D8F800305B6B46
:10113000022B40F0A1871B2C00F39E8741F29043C5
:10114000F3585B6B012B40F09787022908D1042CE0
:1011500006DD41F25043F258576B012F00F0AF8784
:10116000D8F800305B6B022B7FF463AB1B2C3FF78E
:1011700060AB41F29043F258546B012C7FF459ABB1
:1011800082F82540F05803685B69984741F265434F
:10119000EC54FFF74EBB24F010030B2B01D0132CA3
:1011A00041D141F25843F358596B022905D141F21C
:1011B0004843F3585B6B012B12D041F27843F3584C
:1011C0005B6B022B40F086871A2C00F3838741F279
:1011D0008843F3585B6B012B40F07C87022906D1D2
:1011E00041F24843F258576B012F00F0988741F2C3
:1011F0007843F3585B6B022B7FF41BAB1A2C3FF741
:1012000018AB41F28843F258546B012C7FF411ABB8
:1012100082F82540F05803685B69984741F26543BE
:10122000EC54FFF706BBA4F11D03012B3BD806F5D8
:10123000A3573B685B6B022B05D141F25042B25879
:10124000526B012A0FD041F25C42B1584A6B022A1C
:1012500040F0708741F24842B258526B012A41F087
:101260008480022B06D141F25043F258546B012C7A
:1012700000F0818741F25C43F3585B6B022B7FF4F3
:10128000D8AA41F24843F258546B012C7FF4D1AAFA
:1012900082F82540F05803685B69984741F265433E
:1012A000EC54FFF7C6BAA4F11903012B3BD841F265
:1012B0005C43F258536B022B05D141F250417158F7
:1012C000496B01290FD041F258417158496B0229ED
:1012D00040F05F8741F248417158496B012940F065
:1012E0005E87022B06D141F25043F258546B012C19
:1012F00000F0768741F25843F3585B6B022B7FF482
:1013000098AA41F24843F258546B012C7FF491AAF9
:1013100082F82540F05803685B69984741F26543BD
:10132000EC54FFF786BA631F012B39D841F27C4396
:1013300006F5A457F3585B6B022B05D141F28842A6
:10134000B258526B012A0DD03A68526B022A40F013
:10135000528741F29042B258526B012A40F04B87BB
:10136000022B06D141F28843F258546B012C00F055
:101370006B873B685B6B022B7FF45BAA41F2904367
:10138000F258546B012C7FF454AA82F82540F0588F
:1013900003685B69984741F26543EC54FFF749BA2B
:1013A000A4F10903012B03D9A4F11103012B6DD87A
:1013B00041F25843F3585C6B022C05D141F248428C
:1013C000B258526B012A27D041F25C42B258526B9C
:1013D000022A05D141F250417158496B012919D0B7
:1013E00041F278417158496B022905D141F2884197
:1013F0007158496B01290DD041F27C417158496BFC
:10140000022940F02C8741F290417158496B012923
:1014100040F02587022C06D141F24843F258546B24
:10142000012C00F03F8741F25C43F3585B6B022BC9
:1014300006D141F25043F258546B012C00F03D8725
:1014400041F27843F3585B6B022B06D141F288439B
:10145000F258546B012C00F03B8741F27C43F35867
:101460005B6B022B7FF4E5A941F29043F258546B79
:10147000012C7FF4DEA982F82540F05803685B69EF
:10148000984741F26543EC54FFF7D3B9A4F10D033B
:10149000012B03D9153C012C3FF6CBA941F25C434B
:1014A00006F5A354F3585F6B022F06F5A45805D137
:1014B00041F24842B258526B012A24D02268526B42
:1014C000022A05D141F250417158496B012918D0C7
:1014D000D8F80010496B022905D141F290417158AA
:1014E000496B01290DD041F27C417158496B0229A9
:1014F00040F0F98641F288417158496B012940F06A
:10150000F286022F06D141F24843F258576B012F61
:1015100000F00A8723685B6B022B06D141F250432F
:10152000F258546B012C00F00A87D8F800305B6B3E
:10153000022B06D141F29043F258546B012C00F07B
:10154000098741F27C43F3585B6B022B7FF471A94E
:1015500041F28843F258546B012C7FF46AA982F857
:101560002540F05803685B69984741F26543EC54A5
:10157000FFF75FB941F26440295C002940F0918295
:1015800041F26C4305EB8406C8F8004082F8251050
:10159000F05803685B699847620739D1C4B941F2D2
:1015A0007C42AB585C6B002C40F0EA8241F29043E5
:1015B000EA58546B012C7FF43CA982F82540E85886
:1015C00003685B69984741F26543EC54FFF731B912
:1015D00041F25C43F3585B6B43B9072C06DD41F2E3
:1015E0005043F3585B6B012B00F0E68241F27C42E2
:1015F000B3585F6B002F40F0D182172C3FF719A929
:1016000041F29043F3585B6B012B7FF412A9D3E2B4
:1016100024F00803072B01D0172C43D141F27C435F
:10162000F3585F6B3FB9172C05DC41F28842B25882
:10163000526B012A13D041F25C42B258526B002A1D
:1016400040F0ED82072C40F3EA8241F24842B25862
:10165000526B012A40F0E38247B9172C06DC41F2B5
:101660008843F258576B012F00F0E98241F25C4346
:10167000F3585B6B002B7FF4DCA8072C7FF7D9A80D
:1016800041F24843F258546B012C7FF4D2A882F8FF
:101690002540F05803685B69984741F26543EC5474
:1016A000FFF7C7B8042B01D0142C20D106F5A4589D
:1016B000D8F80030596B06F5A35341B9172C06DC56
:1016C00041F29042B258526B012A00F0E7821A6848
:1016D000526B002A40F0BD82072C40F3BA8241F2DF
:1016E0005042B258526B012A40F0B382D6E2032C2A
:1016F00006D024F010030B2B1BD0132C5DD118E067
:1017000041F28443EB58596B002940F0F78241F2D3
:101710009443EA58546B012C40F0F08282F8254043
:10172000E85803685B69984741F26543EC54FFF75A
:1017300080B841F27843F358596B39B9172C05DC5E
:1017400041F28843F3585B6B012B13D041F25843AD
:10175000F3585B6B002B40F0F682072C40F3F382CA
:1017600041F24843F3585B6B012B40F0EC8241B9E6
:10177000172C06DC41F28843F258576B012F00F01A
:10178000078341F25843F3585B6B002B7FF451A859
:10179000072C7FF74EA841F24843F258546B012CB6
:1017A0007FF447A882F82540F05803685B699847A2
:1017B00041F26543EC54FFF73CB8631E012B38D867
:1017C00041F27C43F358596B31B941F29043F358DD
:1017D0005B6B012B00F0E68241F27842B3585C6B00
:1017E00054B941F28843F3585B6B012B00F0DA8265
:1017F00001297FF41EA80AE0012CF9D183F82540C5
:10180000B05803685B69984741F26543EC5441F274
:101810007C43F258546B012C7FF40BA882F82540CE
:10182000F05803685B69984741F26543EC54FFF751
:1018300000B8631F012B37D841F27C4306F5A4574B
:10184000F258536B2BB941F288417158496B012909
:101850000CD03968496B002940F0D28241F29041A6
:101860007158496B012940F0D18233B941F2884364
:10187000F258546B012C00F0E8823B685B6B002B44
:101880007EF4D7AF41F29043F258546B012C7EF4B2
:10189000D0AF82F82540F05803685B69984741F261
:1018A0006543EC54FEF7C5BFA4F11903012B1AD808
:1018B00041F25843F3585B6B33B941F24843F35854
:1018C0005B6B012B00F0CB8241F25C43F3585B6B06
:1018D000002B40F0E88241F25043F3585B6B012B40
:1018E00040F0E182BBE2A4F10903012B03D9A4F18A
:1018F0001103012B67D841F27843F3585C6B2CB984
:1019000041F28842B258526B012A24D041F27C4203
:10191000B258526B2AB941F290417158496B012972
:1019200018D041F258417158496B29B941F24841E8
:101930007158496B01290DD041F25C417158496BD6
:10194000002940F0E38241F250417158496B01296E
:1019500040F0DC8234B941F28843F258546B012CD8
:1019600000F0F78241F27C43F3585B6B33B941F2EC
:101970009043F258546B012C00F0F58241F2584329
:10198000F3585B6B33B941F24843F258546B012C66
:1019900000F0F38241F25C43F3585B6B002B7EF462
:1019A00048AF41F25043F258546B012C7EF441AFE2
:1019B00082F82540F05803685B69984741F2654317
:1019C000EC54FEF736BFA4F10D03012B03D9153CEF
:1019D000012C3EF62EAF41F27C4306F5A454F35899
:1019E0005F6B06F5A3582FB941F28842B258526B8B
:1019F000012A21D02268526B2AB941F290417158D4
:101A0000496B012917D0D8F80010496B29B941F268
:101A100050417158496B01290DD041F25C41715818
:101A2000496B002940F0B38241F248417158496B3B
:101A3000012940F0AC8237B941F28843F258576B24
:101A4000012F00F0C58223685B6B33B941F29043EC
:101A5000F258546B012C00F0C582D8F800305B6B53
:101A600033B941F25043F258546B012C00F0C48258
:101A700041F25C43F3585B6B002B7EF4DAAE41F22B
:101A80004843F258546B012C7EF4D3AE82F82540C3
:101A9000F05803685B69984741F26543EC54FEF7E0
:101AA000C8BEBAF1010F05F5A75A0AF1080A52D1CA
:101AB000C3F83490D8F8003003F21A5305EB8303CF
:101AC0006946586803689E6E0323ADF80030ADF890
:101AD000043001AAB04741F26C4305EB84060222B0
:101AE000F1584A63A4F11C01032997BFF158F0583B
:101AF00081F84290F0588BBF036803689B6E9B6E21
:101B00008DBFADF80090ADF80020ADF80420ADF821
:101B10000490694601AA984757F8043F5A6B012A76
:101B200006D1002283F82520386803685B6998474E
:101B30005745F1D1D8F800301A1B82EAE271A1EBC7
:101B4000E27105297EF761AD9C423FF74FA8BEF6D2
:101B50005CADFFF714B841F265420023AB542B543F
:101B600057F8043F5A6B012A06D1002283F825203A
:101B7000386803685B6998475745F1D1FEF759BE4D
:101B8000012C7EF456AE83F82540A85803685B69A3
:101B9000984741F26543EC54FEF74BBE012F7EF4AB
:101BA00048AE83F82570B05803685B69984741F2E6
:101BB0006543EF54FEF73DBE41F27C43F3585B6B47
:101BC0003BB9172C05DC41F29043F258576B012FBB
:101BD0001BD041F25C43F3585B6B002B7EF429AEC3
:101BE000072C7EF726AE41F25043F258546B012C7D
:101BF0007EF41FAE82F82540F05803685B69984771
:101C000041F26543EC54FEF714BE82F82570F0589B
:101C100003685B69984741F26543EF54D9E7012FA8
:101C20007EF407AE83F8257041F27C43F0580368D8
:101C30005B69984741F26543EF54FEF7FABD82F8BD
:101C40002570F05803685B69984741F26543EF548B
:101C50000CE541F27C42B3585C6B012C03D00129A6
:101C60007EF4E7AD08E083F82540B05803685B696F
:101C7000984741F26543EC54D8F800305C6B012C76
:101C80007EF4D7AD83F82540D8F8000003685B697F
:101C9000984741F26543EC54FEF7CBBD1B685B6B84
:101CA0003BB9072C05DD41F25043F258576B012F29
:101CB0001AD0D8F800305B6B002B7EF4BAAD172C2D
:101CC0003EF7B7AD41F29043F258546B012C7EF4CD
:101CD000B0AD82F82540F05803685B69984741F23F
:101CE0006543EC54FEF7A5BD82F82570F0580368F3
:101CF0005B69984741F26543EF54DAE741F2884265
:101D0000AB585C6B012C03D001297EF492AD08E046
:101D100083F82540A85803685B69984741F26543FA
:101D2000EC5441F28443EA58546B012C7EF481ADAB
:101D300082F82540E85803685B69984741F265439B
:101D4000EC54FEF776BD41F27C42B3585C6B012C3B
:101D500003D001297EF46DAD08E083F82540B0582A
:101D600003685B69984741F26543EC5441F278435C
:101D7000F258546B012C7EF45CAD82F82540F0588B
:101D800003685B69984741F26543EC54FEF751BD27
:101D900082F82570F05803685B69984741F2654303
:101DA000EF54EEE441F27843F3585B6B2BB941F208
:101DB0008843F258546B012C18D041F27C43F358FD
:101DC0005B6B002B7EF435AD41F29043F258546BBF
:101DD000012C7EF42EAD82F82540F05803685B6933
:101DE000984741F26543EC54FEF723BD82F8254045
:101DF000F05803685B69984741F26543EC54DCE7AF
:101E0000012B06D001297EF414AD0EE0012B7EF4E7
:101E100010AD012441F27C4382F82540F05803685C
:101E20005B69984741F26543EC543B685C6B012C5D
:101E30007EF4FFAC83F82540386803685B699847F7
:101E400041F26543EC54FEF7F4BC82F82540F058AB
:101E500003685B69984741F26543EC540DE541F234
:101E60005C43F3585B6B2BB941F25043F258546B0F
:101E7000012C41D041F25843F3585B6B002B7EF4A8
:101E8000D8AC41F24843F258546B012C7EF4D1ACEB
:101E900082F82540F05803685B69984741F2654332
:101EA000EC54FEF7C6BC41F27842B3585C6B012C8F
:101EB00007D041F27C43F3585B6B012B7EF4B9AC45
:101EC00008E083F82540B05803685B69984741F201
:101ED0006543EC5441F27C43F258546B012C7EF480
:101EE000A8AC82F82540F05803685B69984741F236
:101EF0006543EC54FEF79DBC82F82540F05803681A
:101F00005B69984741F26543EC54B3E7012C03D079
:101F1000012A7EF48EAC0AE083F8254041F2784332
:101F2000F05803685B69984741F26543EC5441F20D
:101F30007C43F258546B012C7EF47BAC82F8254034
:101F4000F05803685B69984741F26543EC54FEF72B
:101F500070BC82F82540F05803685B69984741F2ED
:101F60006543EC54FEE482F82540F05803685B6951
:101F7000984741F26543EC5400E582F82540F0585B
:101F800003685B69984741F26543EC5402E5012F11
:101F900003D0012A7EF44DAC0AE083F8257041F2AB
:101FA0007C43F05803685B69984741F26543EF54FE
:101FB00023685E6B012E7EF43CAC83F825602068BC
:101FC00003685B69984741F26543EE54FEF731BC04
:101FD00082F82570F05803685B69984741F26543C1
:101FE000EF5430E582F82540F05803685B69984764
:101FF00041F26543EC5430E582F82540F05803681F
:102000005B69984741F26543EC5431E5012F7EF45A
:1020100010AC83F8257041F25C43F05803685B69AB
:10202000984741F26543EF54FEF703BC82F82570F0
:10203000F05803685B69984741F26543EF54FEF737
:10204000FCBF012F7EF4F5AB83F8257041F25C43B1
:10205000F05803685B69984741F26543EF54FEF717
:10206000E8BB82F82570F05803685B69984741F235
:102070006543EF54FFF72BB841F25C42B3585C6BF9
:10208000012C03D001297EF4D4AB08E083F825406D
:10209000B05803685B69984741F26543EC543B686C
:1020A0005C6B012C7EF4C5AB83F82540386803686F
:1020B0005B69984741F26543EC54FEF7BABB82F87E
:1020C0002570F05803685B69984741F26543EF5407
:1020D000FFF746B841F25C42B3585C6B012C03D069
:1020E00001297EF4A6AB08E083F82540B0580368C8
:1020F0005B69984741F26543EC5441F25843F2580A
:10210000546B012C7EF495AB82F82540F05803689F
:102110005B69984741F26543EC54FEF78ABB82F84D
:102120002570F05803685B69984741F26543EF54A6
:10213000FFF75DB8012B29D0012A7EF47AAB012488
:1021400041F25C4381F82540F05803685B69984789
:1021500041F26543EC543B685C6B012C7EF469AB47
:1021600083F82540386803685B69984741F2654306
:10217000EC54FEF75EBB82F82540F05803685B69BB
:10218000984741F26543EC54FFF774B8012AE2D155
:10219000D5E7012B06D001297EF44BAB0EE0012BD5
:1021A0007EF447AB012441F25C4382F82540F058AD
:1021B00003685B69984741F26543EC5441F2584328
:1021C000F258546B012C7EF434AB82F82540F05861
:1021D00003685B69984741F26543EC54FEF729BBFD
:1021E00082F82540F05803685B69984741F26543DF
:1021F000EC54FFF77FB806F5A35213685C6B012C13
:1022000007D041F25C43F3585B6B012B7EF411ABBA
:1022100008E083F82540106803685B69984741F23D
:102220006543EC5441F25C43F258546B012C7EF44C
:1022300000AB82F82540F05803685B69984741F28B
:102240006543EC54FEF7F5BA82F82540F058036870
:102250005B69984741F26543EC54FFF78AB8012C5B
:1022600003D0012A7EF4E5AA0AE083F8254041F272
:102270005843F05803685B69984741F26543EC5452
:1022800041F25C43F258546B012C7EF4D2AA82F8DE
:102290002540F05803685B69984741F26543EC5468
:1022A000FEF7C7BA82F82540F05803685B69984783
:1022B00041F26543EC54FFF7B6B882F82540F05878
:1022C00003685B69984741F26543EC54FFF7B8B87F
:1022D00082F82540F05803685B69984741F26543EE
:1022E000EC54FFF7BAB8012F03D0012A7EF4A1AA5B
:1022F0000AE083F8257041F25C43F05803685B699B
:10230000984741F26543EF5423685E6B012E7EF4DB
:1023100090AA83F82560206803685B69984741F2BA
:102320006543EE54FEF785BA82F82570F0580368CD
:102330005B69984741F26543EF54FFF7EBB882F8C9
:102340002540F05803685B69984741F26543EC54B7
:10235000FFF7EBB882F82540F05803685B699847AF
:1023600041F26543EC54FFF7ECB8012B7EF461AA0F
:10237000F1E603B0BDE8F08F094A026000228280D6
:10238000C280028142818281C28102824282426194
:102390008261C26180F82420012280F825207047E4
:1023A00050FD000838B504460D46FFF7E5FF064B23
:1023B00023604FF6FF732046E38484F828302946D3
:1023C00007F01BF8204638BD90F6000810B504460B
:1023D000FFF7D2FF012284F824200A4A226000235A
:1023E0004FF6FF72A36284F82C30E285228684F8CF
:1023F0003220E36384F8403084F8413084F842307E
:10240000204610BD18F600082DE9F04F0446E9B04B
:1024100068AD09F0BFF8224600264FF6FF77E44B7F
:1024200025F8047DE66342F8403B294610460F92AA
:10243000FFF7B8FF04F16C03294618462493ADF862
:102440009C71FFF7AFFF04F19803294618462593C6
:10245000ADF89C71FFF7A6FF04F1C40329461846A6
:102460002693ADF89C71FFF79DFF04F1F003294618
:1024700018462793ADF89C71FFF794FF04F58E730F
:10248000294618462893ADF89C71FFF78BFF04F599
:10249000A473294618462993ADF89C71FFF782FF73
:1024A00004F5BA73294618462A93ADF89C71FFF7D4
:1024B00079FF04F5D073294618462B93ADF89C712B
:1024C000FFF770FF04F5E673294618462C93ADF824
:1024D0009C71FFF767FF04F5FC73294618462D939E
:1024E000ADF89C71FFF75EFF04F5097329461846A5
:1024F0002E93ADF89C71FFF755FF04F51473294630
:1025000018462F93ADF89C71FFF74CFF04F51F732D
:10251000294618463093ADF89C71FFF743FF04F548
:102520002A73294618463193ADF89C71FFF73AFF9C
:1025300004F53573294618463293ADF89C71FFF7C0
:1025400031FF04F54073294618463393ADF89C716A
:10255000FFF728FF04F54B73294618463493ADF86E
:102560009C71FFF71FFF04F55673294618463593F3
:10257000ADF89C71FFF716FF04F561732946184604
:102580003693ADF89C71FFF70DFF04F56C73294687
:1025900018463793ADF89C71FFF704FF04F5777385
:1025A000294618463893ADF89C71FFF7FBFE04F5F9
:1025B0008163294618463993ADF89C71FFF7F2FE06
:1025C00004F23443294618463A93ADF89C71FFF75C
:1025D000E9FE04F58C63294618463B93ADF89C71DF
:1025E000FFF7E0FE04F28C43294618463C93ADF811
:1025F0009C71FFF7D7FE04F59763294618463D9373
:10260000ADF89C71FFF7CEFE04F2E443294618466C
:102610003E93ADF89C71FFF7C5FE04F5A263294611
:1026200018463F93ADF89C71FFF7BCFE04F23C5393
:10263000294618464093ADF89C71FFF7B3FE04F5A8
:10264000AD63294618464193ADF89C71FFF7AAFE89
:1026500004F29453294618464293ADF89C71FFF753
:10266000A1FE04F5B863294618464393ADF89C7162
:10267000FFF798FE04F2EC53294618464493ADF850
:102680009C71FFF78FFE04F5C363294618464593F6
:10269000ADF89C71FFF786FE04F2446329461846A4
:1026A0004693ADF89C71FFF77DFE04F5CE63294695
:1026B00018464793ADF89C71FFF774FE04F29C63D3
:1026C000294618464893ADF89C71FFF76BFE04F558
:1026D000D963294618464993ADF89C71FFF762FE0D
:1026E00004F2F463294618464A93ADF89C71FFF74B
:1026F00059FE04F5E463294618464B93ADF89C71E6
:10270000FFF750FE04F24C73294618464C93ADF87F
:102710009C71FFF747FE04F5EF63294618464D9379
:10272000ADF89C71FFF73EFE04F2A47329461846EB
:102730004E93ADF89C71FFF735FE04F5FA63294618
:1027400018464F93ADF89C71FFF72CFE04F2FC7312
:10275000294618465093ADF89C71FFF723FE04F606
:102760002803294618465193ADF89C71FFF71AFECD
:1027700004F65403294618465293ADF89C71FFF7AE
:1027800011FE04F50863294618465393ADF89C7171
:10279000FFF708FE04F6AC03294618465493ADF83B
:1027A0009C71FFF7FFFD04F6D8032946184601E0A7
:1027B000A8E300085593ADF89C71FFF7F3FD04F60C
:1027C0000413294618465693ADF89C71FFF7EAFDAD
:1027D00004F51363294618465793ADF89C71FFF72B
:1027E000E1FD04F65C13294618465893ADF89C7138
:1027F000FFF7D8FD04F68813294618465993ADF81B
:102800009C71FFF7CFFD04F6B413294618465A937E
:10281000ADF89C71FFF7C6FD04F51E632946184606
:102820005B93ADF89C71FFF7BDFD04F60C232946C0
:1028300018465C93ADF89C71FFF7B4FD04F638239D
:10284000294618465D93ADF89C71FFF7ABFD04F681
:102850006423294618465E93ADF89C71FFF7A2FDEC
:1028600004F52963294618465F93ADF89C71FFF77C
:1028700099FD04F6BC23294618466093ADF89C7177
:10288000FFF790FD04F6E823294618466193ADF85A
:102890009C71FFF787FD04F61433294618466293AE
:1028A000ADF89C71FFF77EFD04F534631846649320
:1028B000FFF762FDD84BC4F8403B04F5376384F85A
:1028C000667BC4F8686B84F86C6B18466393FFF7FB
:1028D00053FDD24BC4F8703B04F6A433A4F8967BA6
:1028E00084F89E7BC4F8986BA4F89C6B84F89F6B6B
:1028F00084F8A06B84F8A16B18461193FFF766FD6E
:1029000004F6E83318461293FFF760FD04F62C43F3
:1029100018461393FFF75AFD04F5476318461493BE
:10292000FFF754FD04F6B44318461593FFF74EFD28
:1029300004F6F84318461693FFF748FD04F63C5397
:1029400018461793FFF742FD04F55863184618938D
:10295000FFF73CFD04F6C45318461993FFF736FD04
:1029600004F6086318461A93FFF730FD04F64C632B
:1029700018461B93FFF72AFD04F5696318461C935C
:10298000FFF724FD04F6D46318461D93FFF71EFDE0
:1029900004F6187318461E93FFF718FD04F65C73CF
:1029A00018461F93FFF712FD04F57A63184620932B
:1029B000FFF70CFD04F6E47318462193FFF706FDBC
:1029C00004F58153083318460293FFF7FFFC04F522
:1029D00083530C3318460393FFF7F8FC04F5855333
:1029E000103318460493FFF7F1FC04F587531433B2
:1029F00018460593FFF7EAFC04F589531833184687
:102A00000693FFF7E3FC04F58B531C33184607933A
:102A1000FFF7DCFC04F58E5318462293FFF7D6FC33
:102A200004F59053043318460893FFF7CFFC04F5E0
:102A30009253083318460993FFF7C8FC04F59453E2
:102A40000C3318460A93FFF7C1FC04F59653103374
:102A500018460B93FFF7BAFC04F598531433184645
:102A60000C93FFF7B3FC04F59A53183318460D93F3
:102A7000FFF7ACFC04F59C531C3318460E93FFF78C
:102A8000A5FC04F59F5318462393FFF79FFC04F51C
:102A9000A153043318461093FFF798FC41F2EC431E
:102AA000E2185F49E15041F2F44354605D4AE2505C
:102AB00041F2F8433246E6500F9831464FF006088F
:102AC000FDF7AAFB0F98ADF89C81294606F095FC0E
:102AD000324624981E21FDF79FFB2498ADF89C6197
:102AE000294606F08AFC324625983C21FDF794FBE6
:102AF0002598ADF89C81294606F07FFC3246269841
:102B00005A21FDF789FB2698ADF89C61294606F00D
:102B100074FC324627987821FDF77EFB2798ADF8A4
:102B20009C81294606F069FC324628989621FDF7DB
:102B300073FB2898ADF89C61294606F05EFC32468E
:102B40002998D221FDF768FB2998ADF89C612946A8
:102B500006F053FC32462A98B421FDF75DFB2A9813
:102B6000ADF89C81294606F048FC1E210A462B98A8
:102B7000FDF752FB2B98ADF89C81294606F03DFCF1
:102B80002C981E225A21FDF747FB2C98ADF89C810A
:102B9000294606F032FC2D981E229621FDF73CFBBB
:102BA0002D98ADF89C81294606F027FC2E981E2210
:102BB000D221FDF731FB2E98ADF89C81294606F015
:102BC0001CFC2F9831463C22FDF726FB2F98ADF8D0
:102BD0009C81294606F011FC3C210A463098FDF7FD
:102BE0001BFB3098ADF89C81294606F006FC319815
:102BF0003C227821FDF710FB3198ADF89C812946E5
:102C000006F0FBFB32983C22B421FDF705FB32981D
:102C1000ADF89C81294607E010F50008A8F30008EC
:102C200090E30008B903000806F0E7FB339831464B
:102C30001E22FDF7F1FA3398ADF89C61294606F0A3
:102C4000DCFB34983C221E21FDF7E6FA3498ADF8FF
:102C50009C61294606F0D1FB35981E223C21FDF7E8
:102C6000DBFA3598ADF89C61294606F0C6FB36982C
:102C70003C225A21FDF7D0FA3698ADF89C612946DE
:102C800006F0BBFB37981E227821FDF7C5FA37986E
:102C9000ADF89C61294606F0B0FB38983C2296219D
:102CA000FDF7BAFA3898ADF89C61294606F0A5FB05
:102CB00039981E22B421FDF7AFFA3998ADF89C611E
:102CC000294606F09AFB3A983C22D221FDF7A4FA55
:102CD0003A98ADF89C61294606F08FFB3B98314647
:102CE0005A22FDF799FA3B98ADF89C61294606F007
:102CF00084FB3C985A223C21FDF78EFA3C98ADF8B3
:102D00009C61294606F079FB3D985A227821FDF70F
:102D100083FA3D98ADF89C61294606F06EFB3E981B
:102D20005A22B421FDF778FA3E98ADF89C61294605
:102D300006F063FB3F9878221E21FDF76DFA3F985D
:102D4000ADF89C61294606F058FB409878225A213C
:102D5000FDF762FA4098ADF89C61294606F04DFBFC
:102D6000419878229621FDF757FA4198ADF89C6179
:102D7000294606F042FB42987822D221FDF74CFA10
:102D80004298ADF89C61294606F037FB43983146DE
:102D90009622FDF741FA4398ADF89C61294606F06A
:102DA0002CFB449896223C21FDF736FA4498ADF866
:102DB0009C61294606F021FB459896227821FDF773
:102DC0002BFA4598ADF89C61294606F016FB46980B
:102DD0009622B421FDF720FA4698ADF89C61294669
:102DE00006F00BFB4798B4221E21FDF715FA479811
:102DF000ADF89C61294606F000FB4898B4225A21A0
:102E0000FDF70AFA4898ADF89C61294606F0F5FAF4
:102E10004998B4229621FDF7FFF94998ADF89C61D5
:102E2000294606F0EAFA4A98B422D221FDF7F4F9CD
:102E30004A98ADF89C61294606F0DFFA4B98314676
:102E4000D222FDF7E9F94B98ADF89C61294606F0CE
:102E5000D4FA4C98D2223C21FDF7DEF94C98ADF81B
:102E60009C61294606F0C9FA4D98D2227821FDF7D7
:102E7000D3F94D98ADF89C61294606F0BEFA4E98FC
:102E8000D222B421FDF7C8F94E98ADF89C612946CD
:102E900006F0B3FA4F985A221E21FDF7BDF94F985C
:102EA000ADF89C81294606F0A8FA5A210A465098A6
:102EB000FDF7B2F95098ADF89C81294606F09DFACD
:102EC00051985A229621FDF7A7F95198ADF89C81A7
:102ED000294606F092FA52985A22D221FDF79CF91F
:102EE0005298ADF89C81294606F087FA53983146EE
:102EF0007822FDF791F95398ADF89C81294606F0A8
:102F00007CFA549878223C21FDF786F95498ADF864
:102F10009C81294606F071FA78210A465598FDF7FA
:102F20007BF95598ADF89C81294606F066FA5698CB
:102F30007822B421FDF770F95698ADF89C812946A6
:102F400006F05BFA579896221E21FDF765F957980F
:102F5000ADF89C81294606F050FA589896225A21DD
:102F6000FDF75AF95898ADF89C81294606F045FAC4
:102F700096210A465998FDF74FF95998ADF89C816A
:102F8000294606F03AFA5A989622D221FDF744F9DA
:102F90005A98ADF89C81294606F02FFA5B98314685
:102FA000B422FDF739F95B98ADF89C81294606F00B
:102FB00024FA5C98D2221E21FDF72EF95C98ADF818
:102FC0009C81294606F019FA5D98B4223C21FDF750
:102FD00023F95D98ADF89C81294606F00EFA5E98BB
:102FE000D2225A21FDF718F95E98ADF89C81294646
:102FF00006F003FA5F98B4227821FDF70DF95F9887
:10300000ADF89C81294606F0F8F96098D222962105
:10301000FDF702F96098ADF89C81294606F0EDF9BC
:10302000D2210A466198FDF7F7F86198ADF89C81C6
:10303000294606F0E2F9B4210A466298FDF7ECF859
:103040006298ADF89C81294606F0D7F95027F02206
:103050001346009764983146FDF7C6F83821FC22E4
:103060000A2008F0DDFCC323C4F8680B00976398BE
:103070000F21F022FDF7B8F832463146304608F00D
:10308000CFFC4FF001091E27C4F8980B3146639816
:10309000A4F89C6B84F8A09B06F054F81098009755
:1030A000394632463B46FDF79FF841F249434FF01F
:1030B000030CE6541098ADF898C166A92A46ADF8FD
:1030C0009CC1CDF894C106F0C9F83B461198009711
:1030D00031463246FDF788F804F5A75B1198ADF844
:1030E000989166A92A460BF10C0BADF89C9106F05D
:1030F000B5F80223C4F8D83B1298C4F8DC9B3B46D1
:1031000039463A46C4F8CCBB0097FDF76DF81298E3
:10311000ADF8989166A92A46ADF89C9106F09EF804
:103120000223C4F81C3C0523C4F8203C1398C4F8BF
:1031300010BC3B46314600973C22FDF755F81398EA
:10314000ADF8989166A92A46ADF89C9106F086F8EC
:103150000223C4F8603CC4F8643C1498C4F854BC1E
:103160003B46314600977822FDF73EF81498ADF8BB
:10317000989166A92A46ADF89C9106F06FF8DDF8A3
:1031800094C1C4F8A8CC0223C4F8A43C1598C4F890
:1031900098BC3B4631460097B422FDF725F81598B8
:1031A000ADF8989166A92A464FF0040AADF89C91B3
:1031B00006F054F80223C4F8E83C1698C4F8ECACC6
:1031C0003B463246C4F8DCBC00973C21FDF70CF8C6
:1031D0001698ADF8989166A92A46ADF89C9106F02C
:1031E0003DF80223C4F82C3D3C210923C4F8303DAE
:1031F0001798C4F820BD3B460A460097FCF7F4FF39
:103200001798ADF8989166A92A46ADF89C9106F0FA
:1032100025F80223C4F8703D0A23C4F8743D1898B9
:10322000C4F864BD3B46394600975A22FCF7DCFFE0
:103230001898ADF8989166A92A46ADF89C9106F0C9
:103240000DF80223C4F8B43D1998C4F8B88D3B4674
:10325000C4F8A8BD00973C217822FCF7C5FF199857
:10326000ADF8989166A92A46ADF89C9105F0F6FF55
:103270000223C4F8F83D0B23C4F8FC3D1A98C4F8A7
:10328000ECBD3B46394600979622FCF7ADFF1A98F5
:10329000ADF8989166A92A46ADF89C9105F0DEFF3D
:1032A0000223C4F83C3E0723C4F8403E1B98C4F8F0
:1032B00030BE3B4600973C21B422FCF795FF1B989B
:1032C000ADF8989166A92A46ADF89C9105F0C6FF25
:1032D0000223C4F8803E0C23C4F8843E1C98C4F832
:1032E00074BE3B4639460097D222FCF77DFF1C98FE
:1032F000ADF8989166A92A46ADF89C9105F0AEFF0D
:103300000223C4F8C43E0823C4F8C83E1D98C4F87C
:10331000B8BE3B463A460097D221FCF765FF1D98A0
:10332000ADF898A166A92A46ADF89CA105F096FFD4
:103330001D23C4F80C3F1E98C4F8086F3B46324664
:10334000C4F8FCBE0097B421FCF74EFF1E98ADF800
:1033500098A166A92A46ADF89CA105F07FFF192324
:10336000C4F8503F1F98C4F84C6F3B463A46C4F827
:1033700040BF00979621FCF737FF1F98ADF898A142
:1033800066A92A46ADF89CA105F068FF1523C4F88C
:10339000943F2098C4F8906F3B46C4F884BF0097D0
:1033A000B4213C22FCF720FF2098ADF898A166A933
:1033B0002A46ADF89CA105F051FF1A23C4F8D83F66
:1033C0002198C4F8D46F3B46C4F8C8BF0097D221F7
:1033D0005A22FCF709FF2198ADF898A166A92A4660
:1033E000ADF89CA105F03AFF41F218030298E650AF
:1033F00041F21C030097E75041F20C03B42144F85A
:1034000003B078223B46FCF7EFFE0298ADF898A196
:1034100066A92A46ADF89CA105F020FF04F581536A
:103420001B22DE631A6441F25003962144F803B074
:10343000039800973B460A46FCF7D6FE0398ADF882
:1034400098A166A92A46ADF89CA105F007FF04F5EE
:10345000835317221E645A6441F29403049844F87B
:1034600003B000973B46D2219622FCF7BDFE04989C
:10347000ADF898A166A92A46ADF89CA105F0EEFE2C
:1034800004F585531F225E649A6441F2D8030598BF
:1034900044F803B000973B4696215A22FCF7A4FE5D
:1034A0000598ADF898A166A92A46ADF89CA105F04B
:1034B000D5FE04F5875316229E64DA6441F21C138C
:1034C000B42144F803B0069800973B460A46FCF73F
:1034D0008BFE0698ADF898A166A92A46ADF89CA186
:1034E00005F0BCFE04F589531C22DE641A6504F560
:1034F0008B53D221C3F800B0079800973B460A4689
:10350000FCF772FE0798ADF898A166A92A46ADF8B7
:103510009CA105F0A3FE04F58B5320221E655A657D
:1035200041F2A413229844F803B000973B46962139
:10353000D222FCF759FE2298ADF898A166A92A4636
:10354000ADF89CA105F08AFE04F58E5318225E6347
:103550009A6341F2E813089844F803B032463B46B8
:1035600000977821FCF740FE41F22923DDF894C151
:10357000E6540898ADF898C166A92A46ADF89CC1F2
:1035800005F06CFE04F5905353441122C3F83490B7
:103590009A6341F22C23099844F803B03A463B461B
:1035A00000975A21FCF720FE41F26D23DDF894C10B
:1035B000E6540998ADF898C166A92A46ADF89CC1B1
:1035C00005F04CFE41F270230D2244F803B004F5DF
:1035D00092530A98C3F83C901A6478213B460097AE
:1035E0003C22FCF701FE41F2B123DDF894C1E65420
:1035F0000A98ADF898C166A92A46ADF89CC105F0B5
:103600002DFE04F594531222C3F840905A6441F2FF
:10361000B4235A2144F803B00B9800970A463B465E
:10362000FCF7E2FD41F2F523DDF894C1E6540B9876
:10363000ADF898C166A92A46ADF89CC105F00EFE0A
:1036400041F2F823782144F803B004F596530E2292
:10365000C3F844909A640C9800970A463B46FCF7DE
:10366000C3FD41F23933DDF894C1E6540C98ADF84E
:1036700098C166A92A46ADF89CC105F0EFFD04F596
:1036800098531322C3F84890DA6441F23C330D9802
:1036900044F803B000973B465A219622FCF7A4FD5C
:1036A00041F27D33DDF894C1E6540D98ADF898C130
:1036B00066A92A46ADF89CC105F0D0FD04F59A53E1
:1036C0000F22C3F84C901A6504F59C530E98C3F86A
:1036D00000B078213B460097B422FCF785FD41F20B
:1036E000C133DDF894C1E6540E98ADF898C166A9CF
:1036F0002A46ADF89CC105F0B1FD04F59C53142297
:10370000C3F850905A6541F2C433239844F803B08B
:1037100000973B465A21D222FCF766FD41F2054351
:10372000DDF894C1E6542398ADF898C166A92A46FD
:10373000ADF89CC105F092FD04F59F5310229A63E9
:10374000C3F8349041F2084304EB0A0544F803B08F
:1037500028460F9904F0C0FD2846249904F0BCFDCA
:103760002846259904F0B8FD2846269904F0B4FDB2
:103770002846279904F0B0FD2846289904F0ACFDAE
:103780002846299904F0A8FD28462A9904F0A4FDAA
:1037900028462B9904F0A0FD28462C9904F09CFDA6
:1037A00028462D9904F098FD28462E9904F094FDA2
:1037B00028462F9904F090FD2846309904F08CFD9E
:1037C0002846319904F088FD2846329904F084FD9A
:1037D0002846339904F080FD2846349904F07CFD96
:1037E0002846359904F078FD2846369904F074FD92
:1037F0002846379904F070FD2846389904F06CFD8E
:103800002846399904F068FD28463A9904F064FD89
:1038100028463B9904F060FD28463C9904F05CFD85
:1038200028463D9904F058FD28463E9904F054FD81
:1038300028463F9904F050FD2846409904F04CFD7D
:103840002846419904F048FD2846429904F044FD79
:103850002846439904F040FD2846449904F03CFD75
:103860002846459904F038FD2846469904F034FD71
:103870002846479904F030FD2846489904F02CFD6D
:103880002846499904F028FD28464A9904F024FD69
:1038900028464B9904F020FD28464C9904F01CFD65
:1038A00028464D9904F018FD28464E9904F014FD61
:1038B00028464F9904F010FD2846509904F00CFD5D
:1038C0002846519904F008FD2846529904F004FD59
:1038D0002846539904F000FD2846549904F0FCFC56
:1038E0002846559904F0F8FC2846569904F0F4FC53
:1038F0002846579904F0F0FC2846589904F0ECFC4F
:103900002846599904F0E8FC28465A9904F0E4FC4A
:1039100028465B9904F0E0FC28465C9904F0DCFC46
:1039200028465D9904F0D8FC28465E9904F0D4FC42
:1039300028465F9904F0D0FC2846609904F0CCFC3E
:103940002846619904F0C8FC2846629904F0C4FC3A
:103950002846649904F0C0FC2846639904F0BCFC36
:103960002846119904F0B8FC2846129904F0B4FCDA
:103970002846139904F0B0FC2846149904F0ACFCD6
:103980002846159904F0A8FC2846169904F0A4FCD2
:103990002846179904F0A0FC2846189904F09CFCCE
:1039A0002846199904F098FC28461A9904F094FCCA
:1039B00028461B9904F090FC28461C9904F08CFCC6
:1039C00028461D9904F088FC28461E9904F084FCC2
:1039D00028461F9904F080FC2846209904F07CFCBE
:1039E0002846219904F078FC2846029904F074FCDA
:1039F0002846039904F070FC2846049904F06CFCF6
:103A00002846059904F068FC2846069904F064FCF1
:103A10002846079904F060FC2846229904F05CFCD3
:103A20002846089904F058FC2846099904F054FCEB
:103A300028460A9904F050FC28460B9904F04CFCE7
:103A400028460C9904F048FC28460D9904F044FCE3
:103A500028460E9904F040FC2846239904F03CFCCB
:103A60002846109904F038FC41F26C43119AE25058
:103A700041F27043139AE25041F27443149AE250B7
:103A800041F27843159AE25041F27C43129AE25097
:103A900004F5A453189A1A6041F284431A9AE2502A
:103AA00041F288431C9AE25041F28C43169AE2504C
:103AB00041F29043179AE25041F29443199AE2502E
:103AC00041F298431B9AE25041F29C43099AE2501A
:103AD00004F5A5530B9A1A6041F2A4430D9AE250E3
:103AE00041F2A843239AE25041F2AC43089AE250D3
:103AF00041F2B0430A9AE25041F2B4430C9AE250C8
:103B000041F2B8430E9AE25041F2BC431F9AE25090
:103B100004F5A653059A1A6041F2C443039AE25091
:103B200041F2C843229AE25041F2CC431E9AE2503D
:103B300041F2D043209AE25041F2D443029AE2503B
:103B400041F2D843069AE25041F2DC431D9AE2501A
:103B500004F5A753219A1A6041F2E443049AE25013
:103B600041F2E843079AE250204669B0BDE8F08F81
:103B70007047704741607047704701230372704778
:103B800010B504460AF050F9204610BD70B5044641
:103B900016460D4606F0CAFB0B4AC4F820611460B5
:103BA0000A4A226000230A4AC4F80831C4F80C31DA
:103BB000C4F81021C4F81431C4F81831C4F81C3109
:103BC000C4F82451204670BDF0410020F8E30008FD
:103BD000E0E30008064BC0F818310023C0F81C31A0
:103BE00000F58873C0F81401C0F80C31704700BFAD
:103BF0003D3D00082DE9F04707469068DDF820A01C
:103C0000994603681B6A88461446984741F2FC436C
:103C1000984204D24348444A444BDA2109E06068A0
:103C200003681B6A98470F2805D83E483E4A404B18
:103C3000DB2100F04BFAE06803681B6A98470B2809
:103C400004D83848384A3B4BDC21F2E706F048FB01
:103C500006F04CFBD9F8000010B10368DB68984708
:103C6000D9F8000010B103681B689847386810B194
:103C700003685B699847D8F8000010B103685B6877
:103C80009847386810B103681B689847D8F8000057
:103C900010B103689B689847E068036800215B6A7D
:103CA0009847054620B1002343600372224B03600E
:103CB000A068036800215B6A9847064608B1FCF7D4
:103CC00017FB6068036800215B6A9847044610B1DF
:103CD0003146FCF77BFAC9F80050C8F800403E6056
:103CE0000CB1231D00E02346CAF80030C4F808A038
:103CF0003368F4633046DB689847236820461B68C6
:103D000098472946304607F0A8FD2B6828461B69CE
:103D1000984706F0E5FA03689B6A98472046BDE895
:103D2000F08700BF50E4000862E600088EE4000857
:103D30001CE50008BFE5000838E4000807B50346A5
:103D4000D0F82421009203F58471D3F82021034890
:103D5000034BFFF74FFF03B05DF804FBF441002075
:103D6000044200207047000030B5134D2C6814F059
:103D7000010489B01CD1284600F08FF9C0B104239A
:103D800001930E4B04930E4B0E49059322460A23D2
:103D9000009402940394069407940B4807F084FD62
:103DA000284600F07BF908480849094A0AF036F825
:103DB000054809B030BD00BFE808002034060108FE
:103DC0005005010860050108A4080020653D0008B1
:103DD0001C09002030B5134D2C6814F0010489B083
:103DE0001DD1284600F059F9C8B1032204238DE8FB
:103DF0000C000D4B04930D4B0D4905930E2210231F
:103E000002940394069407940A4807F04DFD28464F
:103E100000F044F907480849084A09F0FFFF05483F
:103E200009B030BDEC08002048060108540501081F
:103E300070050108C4080020653D00081C09002029
:103E400030B5134D2C6814F0010489B01CD12846FC
:103E500000F023F9C0B1042301930E4B04930E4BE1
:103E60000E49059322462823009402940394069455
:103E700007940B4807F018FD284600F00FF9084892
:103E80000849094A09F0CAFF054809B030BD00BF1A
:103E9000E4080020580501085C05010838060108FF
:103EA00084080020653D00081C09002010B5044668
:103EB00009F0BAFF204610BD7047012906D003D390
:103EC000022905D1FFF750BFFFF784BFFFF7B8BF46
:103ED0000020704710B5044609F0A6FF204610BD2B
:103EE00000487047E008010801207047004870470B
:103EF000F008002010B5FFF76DFF044C2060FFF7BD
:103F00009FFF6060FFF730FFA06010BDF008002049
:103F100038B50A4B0A4A18800A4B1A60FFF7E0FFCF
:103F20000546FFF7E3FF0446FFF7DEFF064B1D6083
:103F3000064B1C60064B188038BD00BF10090020DE
:103F4000DC080108040900200C420020184200206F
:103F500014420020014B024A1A60704704090020F5
:103F6000DC080108004870477CE70008072070471C
:103F700008B5044B0146186801B1012104F088FE20
:103F8000012008BD88410020032208B5012000213E
:103F900001F079F8074A106020B100210A460B466B
:103FA00001F092F801200146002201F06CF8024B6A
:103FB000186008BD1409002018090020034B0021D7
:103FC00018684FF0FF320B4601F03FB9140900208A
:103FD000034B002118680A460B4601F075B800BF74
:103FE00014090020034B002118680A460B4601F013
:103FF0002CB900BF1409002007B5094B02AA002103
:10400000186842F8041D0B4601F0DAF8019B1BB159
:10401000044B4FF080521A6003B05DF804FB00BF00
:104020001409002004ED00E007B5094B186860B1E1
:1040300002AA002342F8043D064901F0C1F8019BA1
:104040001BB1054B4FF080521A6003B05DF804FBC2
:10405000180900201000002004ED00E070B5084DA4
:10406000084C286800222146134601F0EEF8286823
:1040700021464FF0FF320023BDE8704001F0E5B863
:104080001809002010000020FEE7FEE7002001498B
:1040900001F0C4BB713F0008704770477047FEE7EE
:1040A000084910F0030318BFC3F104030A6818BFDE
:1040B000C0181318044883423ABF10460B604FF0F3
:1040C000FF307047140000208C460020FEE70000FF
:1040D000024B18680368DB68184700BF884100205E
:1040E0001FB500F003FD00F045FC032300930023FF
:1040F0000193029303930449044840F2B63201F05D
:104100005FF901F033FAFEE708E80008D140000843
:10411000704702F0A5BC10B5044609F085FE2046A4
:1041200010BD0000F8B51C4E1C4C336813F0010F95
:104130000D46174609D13046FFF7AFFF28B1184B9F
:1041400030461B682360FFF7A9FF2368013B23600B
:10415000144CBBB9124B1A68104B1A6002F05AFD8E
:1041600068B10388802B0AD143882B6083880E4A6C
:104170003B60296811600D4A0120136000E00020B7
:104180002070F8BD084B1B682B60084B1B6820781B
:104190003B60C0B2F8BD00BF200900202C09002000
:1041A00018000020240900202809002030090020E0
:1041B00003681B6C184703685B6A18477047000068
:1041C000034B1B78002B40F2E71018BF002070470C
:1041D0003409002010B5044609F026FE204610BD23
:1041E0004FF40070012103F0A7BA0000F0B52B4B8B
:1041F0001B6806469868036897B01B6A0C46984788
:10420000274B4FF080621028C3F888200CBF02258E
:104210000125074603F088F94FF4403301936369A1
:10422000207E0690102F03BF9BB2DA0AC3F345111C
:10423000C3F3074216BFC3F3072103F01F03DBB22A
:104240000393A36805920793A289638A0A929B1A33
:10425000089301A8E38909930491029503F072F988
:1042600001214FF4007003F067FA0BA803F0FCF98A
:1042700000230BA80B930D950E9303F0BFF996F84E
:10428000A60A10B1012103F041FA054B4FF08062FC
:104290009A6003F0ABF917B0F0BD00BF8841002071
:1042A00000E100E02DE9F0470B68202BA0B00546A7
:1042B0000C4609D0402B07D01A1FD2F1000A4AEB56
:1042C000020A802B09D001E04FF0010AA3F58073A8
:1042D000D3F1000949EB030901E04FF001095B4B01
:1042E0001B68986803681B6A98472368402B06463A
:1042F00014D004D8042B0AD0202B0FD011E0802B2F
:1043000017D0B3F5807F0CD14FF0090813E01028C7
:104310000CBF4FF002084FF001080CE04FF000080E
:1043200009E0102E0CBF4FF002084FF001080027E3
:1043300003E04FF00A084FF40037E389A5F8A43AE8
:10434000434B4FF08062C3F8882003F0EDF8102E45
:104350000CBF022301230193A368A2890693638AF9
:1043600000979B1A002707936846E38908930992F0
:10437000039702970497059703F0E4F84FF4007051
:10438000012103F0D9F90AA803F06EF963680A93D2
:10439000A289238ACDF830809B1A0D970B93BAF12E
:1043A000000F02D1B9F1000F3DD0237EFF2B17BFC4
:1043B000022200230F92109308BF0F93B9F1000F50
:1043C00020D0102E636915D19BB21F21DA0AC2EBEF
:1043D000022292FBF1F21392C3F345120B40C2EB9F
:1043E00002223F20C3EB032392FBF0F293FBF1F395
:1043F000129206E0C3F307421392C3F3072212920C
:10440000DBB2119315A803F073F9069B1593102ED8
:10441000079B16930CBF02230123179315A80023B3
:10442000189303F02FF90AA803F0E8F895F8A60A04
:1044300010B1012103F06AF9054B4FF080629A60D8
:1044400003F0D4F820B0BDE8F08700BF8841002019
:1044500000E100E010B5044621460C300F4B6060CF
:10446000602241F8203B04F03DFD04F13C0204F6DB
:10447000BC21002342F8083C1C328A42F9D194F84E
:10448000A72AC4F8A03A63F30002A4F8A43A84F877
:10449000A63A84F8A72A204610BD00BF30E80008DD
:1044A000012380F8641080F8653070474068036825
:1044B0001B68184700207047436B0BB1084618472C
:1044C00070470000014B986A704700BF8468014044
:1044D000024B0122996243F8602C704784680140C6
:1044E000064A536CD068C0F30A0001309BB2834285
:1044F00026BF181A80B20020704700BF0068014034
:104500000849094ACB680948C3F30A03013B9BB237
:1045100013800A69C2F30A02013A02800B64012384
:104520004B637047006801403809002036090020BD
:10453000704710B5044604F091FB23682046DB6FFA
:10454000BDE81040184710B5044609F06DFC204640
:1045500010BD000030B590F8642090F830309A42D9
:104560000E4B1A780CD0C2B90D4A0E490E48148869
:104570000E4D0C80018811802980048001220BE0FF
:104580005AB10948074A01881180054A074D148825
:104590002C801180048000221A7030BD8D410020D3
:1045A00090410020964100208E410020944100203F
:1045B00008B531B90A480B4A0B4B4FF44171FFF76C
:1045C00085FD8163C26309490364003218BF01227B
:1045D0000A700033064A18BF0123137008BD00BFDC
:1045E0006AE900081CE90008A6E9000884410020E7
:1045F0008C410020F8B5561EB6B21F2E9DF81850FB
:1046000019D80124B44014F0803F144F144E08D13F
:1046100014F00B0F0FD03C8862430732D21034885D
:1046200003E03F883488D2087C43624381634BB106
:104630001144C16307E00B480B4A0C4B4FF4377130
:10464000FFF744FDC36315B10A44026400E005644A
:10465000074A1370074B1D70F8BD00BF9041002042
:104660008E4100206AE90008FBE90008DEE9000845
:10467000844100208C410020034B902283F85A2370
:1046800083F85823704700BF00E100E0044B4FF06F
:104690008072C3F888204FF08062C3F8882070478A
:1046A00000E100E0034B4FF080729A604FF08062AF
:1046B0009A60704700E100E070B5144CA36BDB0713
:1046C00022D50123124EE363226C3388114D9A42A6
:1046D0004FF000000ED100F0BFFB0F4B1B8823648E
:1046E0002A6892F85630013382F85630BDE870409F
:1046F000FFF79ABC00F0C0FB338823642868036886
:10470000BDE870409B69184770BD00BF006801405C
:10471000380900208841002036090020064B5A68DD
:10472000920707D502229A60044B1B6858680368F9
:104730005B691847704700BF00B002408841002005
:104740004068704741607047054A136843F08073C2
:104750001360044A136843F001031360704700BFFD
:10476000FCED00E0001000E0521A02EB5300B0FB39
:10477000F3F07047014B1868704700BF041000E069
:10478000704710B5044609F04FFB204610BD10B528
:10479000036804461B6931B19847A26863689B1A95
:1047A0001844606010BD9847A06010BD704701209C
:1047B00070470C2070470C2303FB01000830704742
:1047C0000C2303FB0100083070470120704741F2C1
:1047D000FC40704741F2FC4303FB01000830704786
:1047E00041F2FC4303FB0100083070470120704791
:1047F0001020704700EB01100830704700EB0110EB
:10480000083070470846FFF7E5B9000010B5034BC4
:104810000360044603F0B8FC204610BDF0EA00082F
:1048200010B50446FFF7F2FF204609F0FDFA2046D6
:1048300010BD000010B5034B0360044603F0A4FC58
:10484000204610BDB8EA000810B50446FFF7F2FF95
:10485000204609F0E9FA204610BD000010B5034BD0
:104860000360044603F090FC204610BD80EA000877
:1048700010B50446FFF7F2FF204609F0D5FA2046AE
:1048800010BD000010B5094B0360044600F5A950A7
:104890001030FFF7BBFF04F12C00FFF7CBFF04F152
:1048A0001400FFF7DBFF204610BD00BF28EB000817
:1048B00010B50446FFF7E6FF204609F0B5FA20469A
:1048C00010BD00002DE9F0411E4D2B68DB0736D4EA
:1048D0002846FFF7E2FB002831D01B4C1B4F1C4B36
:1048E000E76007F1140604F1140004F12C0860607D
:1048F000C4F808802661236003F048FC154B63610F
:10490000404603F043FC144BE362384603F03EFCA0
:10491000124B3B6006F5947122463046FBF742FD90
:1049200007F59E70FBF7EEFC3046FFF753F928467B
:10493000FFF7B4FB20460A490A4A09F06FFA024819
:10494000BDE8F081182000203C0900206C1E0020EA
:1049500028EB000880EA0008B8EA0008F0EA00083E
:10496000854800081C09002010B5044609F05CFACF
:10497000204610BDF7B54B4E4B4C356815F0010580
:1049800052D13046FFF789FB00284DD0474B63607A
:10499000474BA360474A484BE360012384F8453006
:1049A00084F8463084F8543084F8573025616561C6
:1049B00025836583A583E58325846584A58484F8A0
:1049C0002650A562A5856563A563E563256484F823
:1049D000445084F8555084F8565084F8585084F860
:1049E000595084F85A5084F85B5084F85C5025661E
:1049F00084F865501460314A314884F83030F02131
:104A000011804FF4A07202802E482F4B05702F4862
:104A1000236001802E4930460A80FFF73FFB204685
:104A20002C492D4A09F0FAF91F4803F059FFFFF706
:104A300099FA0546FFF79AFA00260146009628469D
:104A40003246334607F0DAF8244B254A1A603046DE
:104A5000FFF75EFA234807F03BF8FFF733FF05F056
:104A60003FFC0146104803F07FFE012523680095B6
:104A7000DF6E0D484FF0504110222B46B84784F8A6
:104A8000586084F84660184E84F84550022330463A
:104A900084F85430FFF758FE266184F85C5003B068
:104AA000F0BD00BF14200020AC1F002038200020E3
:104AB00034200020884100202C200020904100203C
:104AC0008E4100208D41002080E8000896410020A2
:104AD00094410020314500081C09002010420020AC
:104AE0001C2000203020002020200020F0B50820CD
:104AF000A3B0012103F040F901244FF4005301A9B0
:104B000000250226974801938DF809608DF808402A
:104B10008DF80A508DF80B5002F0AEFE02F096FAB6
:104B2000284602F0E7F8204602F0E4F802F0B8FA6E
:104B300002F046F94FF08060214603F041F94FF44E
:104B40000000214603F018F96F20214603F014F904
:104B5000854803210E2202F0CEFE834804210E2256
:104B600002F0C9FE804806210E2202F0C4FE7E48F3
:104B70000B210E2202F0BFFE0E227B480C2102F018
:104B8000BAFE41F658037848129312A98DF84D6089
:104B90008DF84C608DF84E508DF84F5002F06CFE41
:104BA00072482946092202F0A6FE704821460922D1
:104BB00002F0A1FE6D4808210E2202F09CFE6B4817
:104BC00009210E2202F097FE68480A210E2202F007
:104BD00092FE0E2265480B2102F08DFE40F6037313
:104BE0006248129312A902F047FE614806210E2284
:104BF00002F081FE5E4807210E2202F07CFE0E22AA
:104C00005B480A2102F077FE4FF4986358481293EC
:104C100012A902F031FE534803210E2202F06BFE6E
:104C20000E225048062102F066FE48230DEB0301D8
:104C30004C48129302F020FE0E224E480A2102F048
:104C40005AFE4FF480634B48129312A902F014FEEF
:104C5000494806210E2202F04EFE474807210E2247
:104C600002F049FE44480A21092202F044FE42486B
:104C70000B210E2202F03FFE09223F480C2102F0D8
:104C80003AFE4FF4E6533C48129312A902F0F4FDA9
:104C900002F0DCFB0721C0200A4603F00BF84FF4BA
:104CA000803003F05DF8204603F010F83D2003F05B
:104CB000B7F80028FAD0092307931D23099303238B
:104CC0000A9340F217130024012540F20D1740F219
:104CD00043160D9303A840F247130E9303940494D4
:104CE0000594069408950B970C960F9410941194C4
:104CF00002F01EFF1E23129304231493FF23179325
:104D00004FF050431E934FF4A07321930223169348
:104D10004FF480631C9305231D934FF4F07312A985
:104D200020931648139740F2E3131F931596189497
:104D300019941A941B9402F067FF284602F052FF60
:104D400029460E4802F0ADFF284602F057FF2846DC
:104D500002F03CFF284601F0D7FF00F05BF823B0DB
:104D6000F0BD00BF000C0240000002400004024001
:104D7000000802400014024000180240846801400C
:104D800038B5154C154D1648164B17490360224689
:104D900009F044F82846FFF75DFB224628461349F0
:104DA00009F03CF81248134B13490360224609F0FE
:104DB00035F8124812490023436022468360114BA4
:104DC000036009F02BF81048104B0360224610498D
:104DD000BDE8384009F022B81C0900203820002026
:104DE0003020002070E70008B93E0008BD410008EF
:104DF0002C20002018E80008114100082020002085
:104E00008147000858EA000834200020D004010837
:104E1000AD47000813B54020012102F0ADFF46F276
:104E200004230093012300248DF804308DF807300B
:104E300007488DF80640022369468DF8053002F0D8
:104E40001BFD044B1C705C709C70DC7002B010BDCC
:104E500000180240E02A0020044B33F81020044BD5
:104E60001A83044B01221A54704700BF34EB000828
:104E700000180240E02A0020044B33F81020044BB5
:104E80005A83044B00221A54704700BF34EB0008C9
:104E900000180240E02A0020034B1B5C0BB1FFF717
:104EA000EBBFFFF7D9BF00BFE02A002000F10803E5
:104EB00043604FF0FF32C3600361002382600360F0
:104EC000704700230361704743684B609A688A60AB
:104ED0009A68516099600861036801330360704704
:104EE0000A68531C30B501D1036907E000F10803DB
:104EF0005C682568954201D82346F9E75A684A60FC
:104F000091608B605960086103680133036030BDB4
:104F1000436882689A60836842685A6003695A6885
:104F2000824204BF82685A60002202611868013818
:104F30001860704738B51546026C044632B90568EA
:104F40003DBB406800F0C0FD656022E065B9806847
:104F500008F0A6FFA268236C13446268A360934222
:104F600017D32368A36014E0C06808F099FF236C8E
:104F7000E26821685B421A448A42E2603EBF62688E
:104F80009B18E360022D04D1A36B13B1A36B013B0B
:104F9000A363A36B0133A36338BD30B50568034633
:104FA0006DB1C468026C1444C4604068844228BF78
:104FB000DD600846BDE83040D96808F071BF30BDFB
:104FC00010B5044600F07CFEA36C002B0CDD636A78
:104FD00053B104F1240000F0BFFC08B100F034FD2F
:104FE000A36C013BA364EFE74FF0FF33A36400F031
:104FF00079FE00F065FE636C002B0CDD236953B174
:1050000004F1100000F0A8FC08B100F01DFD636C75
:10501000013B6364EFE74FF0FF336364BDE810408A
:1050200000F060BE38B50D46044610B900F032FEFF
:10503000FEE700F045FE206CE36B2268A26043436C
:10504000D1181B1A13446160E36000214FF0FF3355
:10505000A1636364A36455B9236983B104F11000AB
:1050600000F07AFC01280AD100F008FE07E004F104
:105070001000FFF71BFF04F12400FFF717FF00F0FB
:1050800031FE012038BDF8B50E461746054670B111
:10509000502000F03DFD044648B106FB05F001300C
:1050A00000F036FD206028B9204600F091FD00F0A8
:1050B000F1FDFEE7E563266420460121FFF7B2FF1C
:1050C00084F84D702046F8BD2DE9FF4188460192D5
:1050D0001E46044610B900F0DDFDFEE721B9036C61
:1050E00013B100F0D7FDFEE7022E02D1E36B012BD6
:1050F00060D1002700F0E4FDA26BE36B9A4201D37C
:10510000022E12D1204641463246FFF713FF636A52
:105110003BB104F1240000F01FFC012801D100F094
:10512000ADFD00F0DFFD012047E0019D15B900F065
:10513000D9FD3DE017B902A800F048FC00F0D2FD0F
:1051400000F03EFA00F0BCFD636C013304BF0023A5
:105150006364A36C013304BF0023A36400F0C2FDA9
:1051600002A801A900F042FCE8B900F0A9FDA76B74
:10517000E56B00F0B7FDAF420FD104F110000199CB
:1051800000F0C4FB2046FFF71BFF00F0AFFA08B1A8
:105190000127AFE700F072FDFAE72046FFF710FFA6
:1051A00000F0A4FAF4E72046FFF70AFF00F09EFAA9
:1051B000002002E000F06EFDFEE704B0BDE8F081E3
:1051C0002DE9F0410E4690461D46044610B900F008
:1051D00061FDFEE721B9036C13B100F05BFDFEE752
:1051E000022D05D1E36B012B02D000F053FDFEE749
:1051F00000F020FE00F04EFDA26BE36B9A420746E2
:1052000001D3022D1AD1204631462A46FFF792FEDD
:10521000A36C01330DD1636A73B104F1240000F073
:105220009BFB48B1B8F1000F06D00124C8F800403C
:1052300005E0A36C0133A364012400E00024384698
:1052400000F04CFD2046BDE8F0812DE9FF410E46FF
:1052500001929846044610B900F01CFDFEE721B902
:10526000036C002B7ED10F463AE0002738E017B9D7
:1052700002A800F0ABFB00F035FD00F0A1F900F052
:105280001FFD636C013304BF00236364A36C01330F
:1052900004BF0023A36400F025FD02A801A900F0CB
:1052A000A5FB002857D100F00BFDA56B00F01AFDFF
:1052B000002D4AD1236833B900F002FD606800F088
:1052C000CFFB00F00FFD04F12400019900F01EFB5C
:1052D0002046FFF775FE00F009FA002832D00127BA
:1052E00000F0EEFCA36B3BB320463146E568FFF7C8
:1052F00054FEB8F1000F12D1A36B013BA3632368E6
:1053000013B900F0A7FB606023698BB104F11000B2
:1053100000F022FB01280BD100F0B0FC08E0636A2A
:10532000E5602BB104F1240000F016FB0028F3D156
:1053300000F0D8FC012018E0019D002D97D100F06D
:10534000D1FC0DE000F09AFCC9E72046FFF738FEDB
:1053500000F0CCF9C3E72046FFF732FE00F0C6F9B3
:10536000002002E000F096FCFEE704B0BDE8F0810A
:1053700010B50E4B1A6850600D4A126890420446F0
:1053800007D20C4A10681968BDE810400431FFF7D5
:10539000A7BD094A106819680431FFF7A1FD074B42
:1053A0001A68944238BF1C6010BD00BF9C2B0020BF
:1053B000B42B0020B82B0020F82A00201C0000206D
:1053C0002DE9F84F0AAE0F4615469A4696E8400971
:1053D000814610B900F05EFCFEE7042E02D900F011
:1053E00059FCFEE7502000F093FB0446002800F033
:1053F0009F80BBF1000F03D1A80000F089FB00E003
:105400005846206318B9204600F0E2FB90E0AD005A
:105410002A46A52108F0DEFD236B043D1D4425F03E
:1054200007057B1E04F13302093713F8011F02F848
:10543000011F93F9001009B1BB42F6D14FF0000BE8
:10544000271D384684F83DB0E662A664FFF739FDB3
:1054500004F11800FFF735FDC6F105032461A361CF
:105460006462C4F84CB028464946524600F0E6FB58
:105470002060B8F1000F01D0C8F8004000F020FC17
:105480002D4A2E4D1368DFF8D890013313602B6836
:105490003BBB2C601268012A2BD1984609EB08000F
:1054A00008F11408FFF702FDB8F1640FF6D1DFF838
:1054B000B4A0DFF8B4805046FFF7F8FC4046FFF791
:1054C000F5FC1F48FFF7F2FC1E48FFF7EFFC1E48F3
:1054D000FFF7ECFC1D4BC3F800A01D4BC3F8008088
:1054E00007E01C4B1B6823B92B68DB6AB34298BFEB
:1054F0002C60194A136801331360184A2364116839
:10550000E36A14208B4200FB0390394688BF136086
:10551000FFF7DAFC00F0E6FB0E4B1B682BB12B68A3
:10552000DB6AB34201D200F0A9FB0120BDE8F88F8D
:105530004FF0FF30BDE8F88FD42B00209C2B0020CB
:10554000A02B0020042B0020E42A0020F82A0020B1
:10555000B82B0020FC2A0020BC2B0020D82B0020D8
:10556000302B0020C02B0020182B002030B585B038
:10557000002400940194029403940D480D494022A4
:105580002346FFF71DFF012805460AD100F082FBE4
:10559000094B1D60094B1C6005B0BDE8304000F0B0
:1055A000F9BB10B900F076FBFEE705B030BD00BFD7
:1055B000B557000850EB0008FC2A0020B42B00204F
:1055C000024A136801331360704700BF942B002018
:1055D0002DE9F0473A4B1B68002B44D1394B1A6830
:1055E00001321A601F68DFB9374B1A68126812B1AE
:1055F00000F050FBFEE7354A19681068186011602A
:1056000033490A6801320A601A681168314A11B9CF
:105610004FF0FF3303E01B68DB68DB685B681360F7
:105620002C4EDFF8C0803368DFF8BC909F424FF00B
:1056300000040DD3244B1A68126812B94FF0FF33DF
:1056400005E01B68DB68DD686B689F4211D2336040
:10565000D9F80030DA6A1423534358F80330022B88
:1056600028BF012424E01C4A13680133136000247E
:105670001EE005F1040A5046FFF74AFCAB6A1BB175
:1056800005F11800FFF744FC144AEB6A1168142076
:105690008B4200FB0380514688BF1360FFF714FC68
:1056A000D9F80030EA6ADB6A9A4228BF0124C1E7D0
:1056B0000B4B1B68002B18BF01242046BDE8F08768
:1056C000942B0020B42B0020F82A0020B82B0020B7
:1056D000982B00201C0000202C2B0020D82B002011
:1056E000DC2B0020302B00209C2B002038B5294CCF
:1056F000236813B900F0CEFAFEE700F0E1FA236860
:10570000013B236023680BB100243EE0224B1B6861
:10571000002BF9D0214B1A6802B3DB68DC68251D29
:1057200004F11800FFF7F4FB2846FFF7F1FB1C4AD1
:10573000E36A11688B4288BF13601A4A142000FB89
:1057400003202946FFF7C0FB174BE26A1B68DB6AA0
:105750009A4222BF154B01221A60DBE7144C2368E2
:105760007BB9124B1C68012CCED100F087FA0CE0FB
:10577000FFF72EFF10B10D4B01221A602368013B89
:1057800023602368002BF3D1EBE700F0ABFA20464F
:1057900038BD00BF942B0020D42B0020A02B00206C
:1057A000D82B0020302B00209C2B0020DC2B00204D
:1057B0002C2B002008B5154C2368F3B1144DFFF7CE
:1057C000FFFE2E68FFF792FF002EF4D000F078FA6B
:1057D000EB68DD68281DFFF79BFB0E4A1368013B51
:1057E00013602368013B236000F07CFA286B00F013
:1057F000EFF9284600F0ECF9DDE7074B1B68012BB9
:1058000001D900F03BFAFEF741FCD4E7002B002061
:10581000042B0020D42B0020302B002038B50D465F
:10582000044608B9044B1C6800F04AFAE564BDE878
:10583000384000F057BA00BF9C2B002008B9044B39
:105840001868C36C0BB1084618471846704700BF6C
:105850009C2B002038B5274B1A68274B12B1012228
:105860001A6038BD254C1A6020680121FFF7E6FF59
:105870002268236812681B6B9A4204D8206821684A
:105880003431FEF701FC23681D49186B1B4D1422AF
:1058900008F0D4FA40B1286829683431FEF7F4FBE7
:1058A00002E00B68013B0B601649174A0868142395
:1058B0005843105828B90B68002BF2D100F0EAF9D0
:1058C000FEE709684B43D018083345686D684560AA
:1058D00013449D4204BF6B684360142303FB012201
:1058E00000215368DB6823602068BDE83840FFF77B
:1058F000A5BF00BF942B0020DC2B00209C2B002098
:105900003CEB0008D82B0020302B002038B50D468A
:1059100010B900F0BFF9FEE70C4C21681831FFF711
:10592000DFFA20680430FFF7F3FA6B1C06D1216818
:1059300007480431BDE83840FFF7C6BA054B186880
:105940002844BDE83840FFF713BD00BF9C2B002062
:10595000E42A0020B42B002038B5C368DC6814B9F1
:1059600000F098F9FEE704F118052846FFF7D0FA91
:10597000104B1B6873B9251D2846FFF7C9FA0E4A5C
:10598000E36A11688B4288BF13600C4A142000FB45
:10599000032000E00A482946FFF796FA094BE26A1D
:1059A0001B68DB6A9A4223BF074B01201860002066
:1059B00038BD00BF942B0020D82B0020302B0020B6
:1059C000A02B00209C2B0020DC2B002008B510B958
:1059D00000F060F9FEE7034B1B680360024B1B6895
:1059E000436008BD982B0020B42B002038B50D462D
:1059F000044610B900F04EF9FEE711B900F04AF97B
:105A0000FEE700F05DF90E4B19682B685A1C10D0A8
:105A10000C4A106822689042626801D091420AD212
:105A2000881A984207D2521A13442B602046FFF777
:105A3000CDFF002400E0012400F054F9204638BDD9
:105A4000B42B0020982B0020014B01221A607047D4
:105A5000DC2B0020014B1868704700BF9C2B0020F6
:105A6000F8B5044648B3154DC36A2A68D26A934212
:105A700023D22A68D26AC2F1050282611048142238
:105A800002FB030362699A42064613D1271D38467A
:105A9000FFF73EFA2B680B4ADB6A1168E3628B4220
:105AA00000D91360142000FB03603946BDE8F840BC
:105AB000FFF70ABA2B68DB6AE362F8BD9C2B002073
:105AC000302B0020D82B002038B50446D0B1C26A54
:105AD000836C9A4216D0051D2846FFF719FAA36C6D
